{
  "_format": "hh-sol-artifact-1",
  "contractName": "Registration",
  "sourceName": "contracts/Registration.sol",
  "abi": [
    {
      "inputs": [
        {
          "internalType": "address",
          "name": "",
          "type": "address"
        }
      ],
      "name": "Peoplevalidation",
      "outputs": [
        {
          "internalType": "string",
          "name": "",
          "type": "string"
        }
      ],
      "stateMutability": "view",
      "type": "function"
    },
    {
      "inputs": [
        {
          "internalType": "address",
          "name": "_c",
          "type": "address"
        },
        {
          "internalType": "string",
          "name": "_n",
          "type": "string"
        },
        {
          "internalType": "string",
          "name": "_l",
          "type": "string"
        },
        {
          "internalType": "string",
          "name": "_con",
          "type": "string"
        }
      ],
      "name": "addConsumer",
      "outputs": [],
      "stateMutability": "nonpayable",
      "type": "function"
    },
    {
      "inputs": [
        {
          "internalType": "address",
          "name": "_d",
          "type": "address"
        },
        {
          "internalType": "string",
          "name": "_n",
          "type": "string"
        },
        {
          "internalType": "string",
          "name": "_l",
          "type": "string"
        },
        {
          "internalType": "string",
          "name": "_c",
          "type": "string"
        }
      ],
      "name": "addDistributor",
      "outputs": [],
      "stateMutability": "nonpayable",
      "type": "function"
    },
    {
      "inputs": [
        {
          "internalType": "address",
          "name": "_f",
          "type": "address"
        },
        {
          "internalType": "string",
          "name": "_n",
          "type": "string"
        },
        {
          "internalType": "string",
          "name": "_c",
          "type": "string"
        }
      ],
      "name": "addFarmer",
      "outputs": [],
      "stateMutability": "nonpayable",
      "type": "function"
    },
    {
      "inputs": [
        {
          "internalType": "address",
          "name": "_c",
          "type": "address"
        },
        {
          "internalType": "string",
          "name": "_n",
          "type": "string"
        },
        {
          "internalType": "string",
          "name": "_l",
          "type": "string"
        },
        {
          "internalType": "string",
          "name": "_con",
          "type": "string"
        }
      ],
      "name": "addRetailer",
      "outputs": [],
      "stateMutability": "nonpayable",
      "type": "function"
    },
    {
      "inputs": [
        {
          "internalType": "address",
          "name": "",
          "type": "address"
        }
      ],
      "name": "addresstoConsumer",
      "outputs": [
        {
          "internalType": "address",
          "name": "c",
          "type": "address"
        },
        {
          "internalType": "string",
          "name": "name",
          "type": "string"
        },
        {
          "internalType": "string",
          "name": "location",
          "type": "string"
        },
        {
          "internalType": "string",
          "name": "contact_no",
          "type": "string"
        }
      ],
      "stateMutability": "view",
      "type": "function"
    },
    {
      "inputs": [
        {
          "internalType": "address",
          "name": "",
          "type": "address"
        }
      ],
      "name": "addresstoDistributor",
      "outputs": [
        {
          "internalType": "address",
          "name": "d",
          "type": "address"
        },
        {
          "internalType": "string",
          "name": "name",
          "type": "string"
        },
        {
          "internalType": "string",
          "name": "location",
          "type": "string"
        },
        {
          "internalType": "string",
          "name": "contact_no",
          "type": "string"
        }
      ],
      "stateMutability": "view",
      "type": "function"
    },
    {
      "inputs": [
        {
          "internalType": "address",
          "name": "",
          "type": "address"
        }
      ],
      "name": "addresstoRetailer",
      "outputs": [
        {
          "internalType": "address",
          "name": "c",
          "type": "address"
        },
        {
          "internalType": "string",
          "name": "name",
          "type": "string"
        },
        {
          "internalType": "string",
          "name": "location",
          "type": "string"
        },
        {
          "internalType": "string",
          "name": "contact_no",
          "type": "string"
        }
      ],
      "stateMutability": "view",
      "type": "function"
    },
    {
      "inputs": [
        {
          "internalType": "address",
          "name": "",
          "type": "address"
        }
      ],
      "name": "addresstofarmer",
      "outputs": [
        {
          "internalType": "address",
          "name": "f",
          "type": "address"
        },
        {
          "internalType": "string",
          "name": "name",
          "type": "string"
        },
        {
          "internalType": "string",
          "name": "crops",
          "type": "string"
        }
      ],
      "stateMutability": "view",
      "type": "function"
    }
  ],
  "bytecode": "0x608060405234801561001057600080fd5b50611a32806100206000396000f3fe608060405234801561001057600080fd5b50600436106100935760003560e01c80638a35be9e116100665780638a35be9e14610163578063a68761a11461017f578063be781e241461019b578063c12dbb9b146101cb578063e9bf6b4c146101e757610093565b806330904b0a146100985780634f7b82b1146100cb57806368fa52b9146100fd5780637908c86e14610130575b600080fd5b6100b260048036038101906100ad919061130c565b610203565b6040516100c294939291906113d8565b60405180910390f35b6100e560048036038101906100e0919061130c565b6103eb565b6040516100f493929190611432565b60405180910390f35b6101176004803603810190610112919061130c565b610545565b60405161012794939291906113d8565b60405180910390f35b61014a6004803603810190610145919061130c565b61072d565b60405161015a94939291906113d8565b60405180910390f35b61017d600480360381019061017891906115ac565b610915565b005b610199600480360381019061019491906115ac565b610b5b565b005b6101b560048036038101906101b0919061130c565b610da1565b6040516101c29190611667565b60405180910390f35b6101e560048036038101906101e091906115ac565b610e41565b005b61020160048036038101906101fc9190611689565b611087565b005b60036020528060005260406000206000915090508060000160009054906101000a900473ffffffffffffffffffffffffffffffffffffffff169080600101805461024c90611743565b80601f016020809104026020016040519081016040528092919081815260200182805461027890611743565b80156102c55780601f1061029a576101008083540402835291602001916102c5565b820191906000526020600020905b8154815290600101906020018083116102a857829003601f168201915b5050505050908060020180546102da90611743565b80601f016020809104026020016040519081016040528092919081815260200182805461030690611743565b80156103535780601f1061032857610100808354040283529160200191610353565b820191906000526020600020905b81548152906001019060200180831161033657829003601f168201915b50505050509080600301805461036890611743565b80601f016020809104026020016040519081016040528092919081815260200182805461039490611743565b80156103e15780601f106103b6576101008083540402835291602001916103e1565b820191906000526020600020905b8154815290600101906020018083116103c457829003601f168201915b5050505050905084565b60016020528060005260406000206000915090508060000160009054906101000a900473ffffffffffffffffffffffffffffffffffffffff169080600101805461043490611743565b80601f016020809104026020016040519081016040528092919081815260200182805461046090611743565b80156104ad5780601f10610482576101008083540402835291602001916104ad565b820191906000526020600020905b81548152906001019060200180831161049057829003601f168201915b5050505050908060020180546104c290611743565b80601f01602080910402602001604051908101604052809291908181526020018280546104ee90611743565b801561053b5780601f106105105761010080835404028352916020019161053b565b820191906000526020600020905b81548152906001019060200180831161051e57829003601f168201915b5050505050905083565b60056020528060005260406000206000915090508060000160009054906101000a900473ffffffffffffffffffffffffffffffffffffffff169080600101805461058e90611743565b80601f01602080910402602001604051908101604052809291908181526020018280546105ba90611743565b80156106075780601f106105dc57610100808354040283529160200191610607565b820191906000526020600020905b8154815290600101906020018083116105ea57829003601f168201915b50505050509080600201805461061c90611743565b80601f016020809104026020016040519081016040528092919081815260200182805461064890611743565b80156106955780601f1061066a57610100808354040283529160200191610695565b820191906000526020600020905b81548152906001019060200180831161067857829003601f168201915b5050505050908060030180546106aa90611743565b80601f01602080910402602001604051908101604052809291908181526020018280546106d690611743565b80156107235780601f106106f857610100808354040283529160200191610723565b820191906000526020600020905b81548152906001019060200180831161070657829003601f168201915b5050505050905084565b60076020528060005260406000206000915090508060000160009054906101000a900473ffffffffffffffffffffffffffffffffffffffff169080600101805461077690611743565b80601f01602080910402602001604051908101604052809291908181526020018280546107a290611743565b80156107ef5780601f106107c4576101008083540402835291602001916107ef565b820191906000526020600020905b8154815290600101906020018083116107d257829003601f168201915b50505050509080600201805461080490611743565b80601f016020809104026020016040519081016040528092919081815260200182805461083090611743565b801561087d5780601f106108525761010080835404028352916020019161087d565b820191906000526020600020905b81548152906001019060200180831161086057829003601f168201915b50505050509080600301805461089290611743565b80601f01602080910402602001604051908101604052809291908181526020018280546108be90611743565b801561090b5780601f106108e05761010080835404028352916020019161090b565b820191906000526020600020905b8154815290600101906020018083116108ee57829003601f168201915b5050505050905084565b600060405180608001604052808673ffffffffffffffffffffffffffffffffffffffff168152602001858152602001848152602001838152509050600481908060018154018082558091505060019003906000526020600020906004020160009091909190915060008201518160000160006101000a81548173ffffffffffffffffffffffffffffffffffffffff021916908373ffffffffffffffffffffffffffffffffffffffff16021790555060208201518160010190816109d8919061192a565b5060408201518160020190816109ee919061192a565b506060820151816003019081610a04919061192a565b5050506040518060400160405280600181526020017f64000000000000000000000000000000000000000000000000000000000000008152506000808773ffffffffffffffffffffffffffffffffffffffff1673ffffffffffffffffffffffffffffffffffffffff1681526020019081526020016000209081610a87919061192a565b5080600360008773ffffffffffffffffffffffffffffffffffffffff1673ffffffffffffffffffffffffffffffffffffffff16815260200190815260200160002060008201518160000160006101000a81548173ffffffffffffffffffffffffffffffffffffffff021916908373ffffffffffffffffffffffffffffffffffffffff1602179055506020820151816001019081610b24919061192a565b506040820151816002019081610b3a919061192a565b506060820151816003019081610b50919061192a565b509050505050505050565b600060405180608001604052808673ffffffffffffffffffffffffffffffffffffffff168152602001858152602001848152602001838152509050600881908060018154018082558091505060019003906000526020600020906004020160009091909190915060008201518160000160006101000a81548173ffffffffffffffffffffffffffffffffffffffff021916908373ffffffffffffffffffffffffffffffffffffffff1602179055506020820151816001019081610c1e919061192a565b506040820151816002019081610c34919061192a565b506060820151816003019081610c4a919061192a565b5050506040518060400160405280600181526020017f72000000000000000000000000000000000000000000000000000000000000008152506000808773ffffffffffffffffffffffffffffffffffffffff1673ffffffffffffffffffffffffffffffffffffffff1681526020019081526020016000209081610ccd919061192a565b5080600760008773ffffffffffffffffffffffffffffffffffffffff1673ffffffffffffffffffffffffffffffffffffffff16815260200190815260200160002060008201518160000160006101000a81548173ffffffffffffffffffffffffffffffffffffffff021916908373ffffffffffffffffffffffffffffffffffffffff1602179055506020820151816001019081610d6a919061192a565b506040820151816002019081610d80919061192a565b506060820151816003019081610d96919061192a565b509050505050505050565b60006020528060005260406000206000915090508054610dc090611743565b80601f0160208091040260200160405190810160405280929190818152602001828054610dec90611743565b8015610e395780601f10610e0e57610100808354040283529160200191610e39565b820191906000526020600020905b815481529060010190602001808311610e1c57829003601f168201915b505050505081565b600060405180608001604052808673ffffffffffffffffffffffffffffffffffffffff168152602001858152602001848152602001838152509050600681908060018154018082558091505060019003906000526020600020906004020160009091909190915060008201518160000160006101000a81548173ffffffffffffffffffffffffffffffffffffffff021916908373ffffffffffffffffffffffffffffffffffffffff1602179055506020820151816001019081610f04919061192a565b506040820151816002019081610f1a919061192a565b506060820151816003019081610f30919061192a565b5050506040518060400160405280600181526020017f63000000000000000000000000000000000000000000000000000000000000008152506000808773ffffffffffffffffffffffffffffffffffffffff1673ffffffffffffffffffffffffffffffffffffffff1681526020019081526020016000209081610fb3919061192a565b5080600560008773ffffffffffffffffffffffffffffffffffffffff1673ffffffffffffffffffffffffffffffffffffffff16815260200190815260200160002060008201518160000160006101000a81548173ffffffffffffffffffffffffffffffffffffffff021916908373ffffffffffffffffffffffffffffffffffffffff1602179055506020820151816001019081611050919061192a565b506040820151816002019081611066919061192a565b50606082015181600301908161107c919061192a565b509050505050505050565b600060405180606001604052808573ffffffffffffffffffffffffffffffffffffffff168152602001848152602001838152509050600281908060018154018082558091505060019003906000526020600020906003020160009091909190915060008201518160000160006101000a81548173ffffffffffffffffffffffffffffffffffffffff021916908373ffffffffffffffffffffffffffffffffffffffff1602179055506020820151816001019081611144919061192a565b50604082015181600201908161115a919061192a565b5050506040518060400160405280600181526020017f66000000000000000000000000000000000000000000000000000000000000008152506000808673ffffffffffffffffffffffffffffffffffffffff1673ffffffffffffffffffffffffffffffffffffffff16815260200190815260200160002090816111dd919061192a565b5080600160008673ffffffffffffffffffffffffffffffffffffffff1673ffffffffffffffffffffffffffffffffffffffff16815260200190815260200160002060008201518160000160006101000a81548173ffffffffffffffffffffffffffffffffffffffff021916908373ffffffffffffffffffffffffffffffffffffffff160217905550602082015181600101908161127a919061192a565b506040820151816002019081611290919061192a565b5090505050505050565b6000604051905090565b600080fd5b600080fd5b600073ffffffffffffffffffffffffffffffffffffffff82169050919050565b60006112d9826112ae565b9050919050565b6112e9816112ce565b81146112f457600080fd5b50565b600081359050611306816112e0565b92915050565b600060208284031215611322576113216112a4565b5b6000611330848285016112f7565b91505092915050565b611342816112ce565b82525050565b600081519050919050565b600082825260208201905092915050565b60005b83811015611382578082015181840152602081019050611367565b60008484015250505050565b6000601f19601f8301169050919050565b60006113aa82611348565b6113b48185611353565b93506113c4818560208601611364565b6113cd8161138e565b840191505092915050565b60006080820190506113ed6000830187611339565b81810360208301526113ff818661139f565b90508181036040830152611413818561139f565b90508181036060830152611427818461139f565b905095945050505050565b60006060820190506114476000830186611339565b8181036020830152611459818561139f565b9050818103604083015261146d818461139f565b9050949350505050565b600080fd5b600080fd5b7f4e487b7100000000000000000000000000000000000000000000000000000000600052604160045260246000fd5b6114b98261138e565b810181811067ffffffffffffffff821117156114d8576114d7611481565b5b80604052505050565b60006114eb61129a565b90506114f782826114b0565b919050565b600067ffffffffffffffff82111561151757611516611481565b5b6115208261138e565b9050602081019050919050565b82818337600083830152505050565b600061154f61154a846114fc565b6114e1565b90508281526020810184848401111561156b5761156a61147c565b5b61157684828561152d565b509392505050565b600082601f83011261159357611592611477565b5b81356115a384826020860161153c565b91505092915050565b600080600080608085870312156115c6576115c56112a4565b5b60006115d4878288016112f7565b945050602085013567ffffffffffffffff8111156115f5576115f46112a9565b5b6116018782880161157e565b935050604085013567ffffffffffffffff811115611622576116216112a9565b5b61162e8782880161157e565b925050606085013567ffffffffffffffff81111561164f5761164e6112a9565b5b61165b8782880161157e565b91505092959194509250565b60006020820190508181036000830152611681818461139f565b905092915050565b6000806000606084860312156116a2576116a16112a4565b5b60006116b0868287016112f7565b935050602084013567ffffffffffffffff8111156116d1576116d06112a9565b5b6116dd8682870161157e565b925050604084013567ffffffffffffffff8111156116fe576116fd6112a9565b5b61170a8682870161157e565b9150509250925092565b7f4e487b7100000000000000000000000000000000000000000000000000000000600052602260045260246000fd5b6000600282049050600182168061175b57607f821691505b60208210810361176e5761176d611714565b5b50919050565b60008190508160005260206000209050919050565b60006020601f8301049050919050565b600082821b905092915050565b6000600883026117d67fffffffffffffffffffffffffffffffffffffffffffffffffffffffffffffffff82611799565b6117e08683611799565b95508019841693508086168417925050509392505050565b6000819050919050565b6000819050919050565b600061182761182261181d846117f8565b611802565b6117f8565b9050919050565b6000819050919050565b6118418361180c565b61185561184d8261182e565b8484546117a6565b825550505050565b600090565b61186a61185d565b611875818484611838565b505050565b5b818110156118995761188e600082611862565b60018101905061187b565b5050565b601f8211156118de576118af81611774565b6118b884611789565b810160208510156118c7578190505b6118db6118d385611789565b83018261187a565b50505b505050565b600082821c905092915050565b6000611901600019846008026118e3565b1980831691505092915050565b600061191a83836118f0565b9150826002028217905092915050565b61193382611348565b67ffffffffffffffff81111561194c5761194b611481565b5b6119568254611743565b61196182828561189d565b600060209050601f8311600181146119945760008415611982578287015190505b61198c858261190e565b8655506119f4565b601f1984166119a286611774565b60005b828110156119ca578489015182556001820191506020850194506020810190506119a5565b868310156119e757848901516119e3601f8916826118f0565b8355505b6001600288020188555050505b50505050505056fea264697066735822122068f1bae23a3c4122a0a09248eed42808a7b549ea3d981d229737e8556cb1fa9964736f6c63430008130033",
  "linkReferences": {},
  "deployedLinkReferences": {}
}